:100000000C942A000C943C000C943C000C943C0092
:100010000C943C000C943C000C943C000C943C0070
:100020000C943C000C943C000C943C000C943C0060
:100030000C943C000C943C000C943C000C943C0050
:100040000C943C000C943C000C943C000C943C0040
:100050000C943C0011241FBECFE5D8E0DEBFCDBF1D
:1000600020E0A0E6B0E001C01D92A036B207E1F7A3
:100070000E943E000C9458000C94000081E088BB64
:1000800080E28ABB1FBC86E08EBD1DBC1CBC87EC19
:1000900090E09BBD8ABD88B7846088BF9BB380E237
:1000A00089278BBB08B602FEF9CF84E088BFF3CF67
:0400B000F894FFCFF2
:00000001FF
