S00E000053657269616C2E73726563B6
S11300000C942A000C9434000C9434000C943400A6
S11300100C9434000C9434000C9434000C9434008C
S11300200C9434000C9434000C9434000C9434007C
S11300300C9434000C9434000C9434000C9434006C
S11300400C9434000C9434000C9434000C9434005C
S11300500C94340011241FBECFE5D8E0DEBFCDBF21
S11300600E9444000C947A000C94000010BC85E0BB
S113007089B98AB188608AB980B5866880BD0895D7
S11300805D9BFECF8CB908950E94360088E40E94DF
S1130090400085E60E9440008CE60E9440008CE609
S11300A00E9440008FE60E9440008CE20E944000C3
S11300B080E20E94400087E70E9440008FE60E9491
S11300C0400082E70E9440008CE60E94400084E6E3
S11300D00E94400081E20E9440008AE00E944000A9
S11300E02FE38DE093E0215080409040E1F700C081
S10B00F00000CCCFF894FFCF0F
S9030000FC
