S01800004763634170706C69636174696F6E5F312E73726563FB
S11300000C942A000C9434000C9434000C943400A6
S11300100C9434000C9434000C9434000C9434008C
S11300200C9434000C9434000C9434000C9434007C
S11300300C9434000C9434000C9434000C9434006C
S11300400C9434000C9434000C9434000C9434005C
S11300500C94340011241FBECFE5D8E0DEBFCDBF21
S11300600E9442000C944B000C94000012BE87ECDA
S11300708CBF89E083BF08B601FEFDCF13BE82E0CA
S113008088BF089580E287BB98B380E2892788BB44
S10D00900E943600F9CFF894FFCF68
S9030000FC
