:100000000C942A000C9434000C9434000C943400AA
:100010000C9434000C9434000C9434000C94340090
:100020000C9434000C9434000C9434000C94340080
:100030000C9434000C9434000C9434000C94340070
:100040000C9434000C9434000C9434000C94340060
:100050000C94340011241FBECFE5D8E0DEBFCDBF25
:100060000E943D000C944B000C94000088B788233C
:10007000E9F313BE82E088BF089580E487BB12BE17
:1000800087EC8CBF8DE083BF0E94360098B380E47C
:0A009000892788BBF9CFF894FFCF51
:00000001FF
