S00E00006865696C6C6F2E7372656399
S11300000C942A000C9434000C9434000C943400A6
S11300100C9434000C9434000C9434000C9434008C
S11300200C9434000C9434000C9434000C9434007C
S11300300C9434000C9434000C9434000C9434006C
S11300400C9434000C9434000C9434000C9434005C
S11300500C94340011241FBECFE5D8E0DEBFCDBF21
S11300600E9444000C9453000C9400001FBC8EE0CA
S11300708EBD1BBC83E68ABD8BB38CB508B604FE6B
S1130080FBCF80E188BF089587B38D7F87BB84B39E
S1130090816084BB8FEF8ABB95B381E0892785BBE0
S10D00A00E943600F9CFF894FFCF58
S9030000FC
