S00D0000636F756E742E73726563EE
S11300000C943A000C9444000C9444000C94440066
S11300100C9444000C9444000C9444000C9444004C
S11300200C9444000C9444000C9444000C9444003C
S11300300C9444000C9444000C9444000C9444002C
S11300400C9444000C9444000C9444000C9444001C
S11300500C9444000C9444000C9444000C9444000C
S11300600C9444000C9444000C9444000C944400FC
S11300700C94440011241FBECFEFD4E0DEBFCDBFEB
S11300800E9446000C9456000C94000014B88FEFA4
S11300908AB987B986E084BD90E09BB986B588B9F2
S11300A0A89BFCCF81E085BB9F5FF7CFF894FFCF7F
S9030000FC
