:100000000C942A000C943E000C9434000C943400A0
:100010000C9434000C9434000C9434000C94340090
:100020000C9434000C9434000C9434000C94340080
:100030000C9434000C9434000C9434000C94340070
:100040000C9434000C9434000C9434000C94340060
:100050000C94340011241FBECFE5D8E0DEBFCDBF25
:100060000E944D000C9453000C94000085B78360EF
:1000700085BF8BB780648BBF789408951F920F92D1
:100080000FB60F9211248F9382B3816082BB8F9140
:100090000F900FBE0F901F90189581B3816081BBA8
:0A00A0000E943600FFCFF894FFCF56
:00000001FF
