:100000000C942A000C944A000C944A000C944A0068
:100010000C944A000C944A000C944A000C944A0038
:100020000C944A000C944A000C944A000C944A0028
:100030000C944A000C944A000C944A000C944A0018
:100040000C944A000C944A000C944A000C944A0008
:100050000C944A0011241FBECFE5D8E0DEBFCDBF0F
:0C0060000E9441000C943400F894FFCF83
:10006C0082EF82BF81E083BF08B600FEFDCF13BED6
:06007C0081E088BF089539
:100082008FEF87BB0E94360098B380E2892788BB36
:02009200F9CFA4
:040094000C940000C8
:00000001FF
